:1000000000180020C1000000791F0000451F0000FB
:10001000451F0000451F0000451F0000451F000050
:10002000451F0000451F0000451F0000791F00000C
:10003000791F0000451F0000791F0000351F0000D8
:10004000791F0000791F0000791F0000791F000050
:10005000791F0000791F0000791F0000791F000040
:10006000791F0000791F0000791F0000791F000030
:1000700079370000013C000089400000791F000032
:10008000791F0000791F0000791F0000791F000010
:10009000791F0000791F0000791F0000791F000000
:1000A000AD270000791F0000791F0000791F0000B4
:1000B000791F0000791F0000791F0000791F0000E0
:1000C00038B501F05DFF454A454B1A60454A464B3D
:1000D0001A60464A464B1A60464B0822197811426C
:1000E00002D019780A431A70434B2A221A7000234F
:1000F000424A43499A188A4204D24249C9580433B1
:100100001160F5E7404B41491A1F181D00238A4230
:1001100002D21360031CF6E73D493E4A5958101CB1
:1001200099500433C02BF7D100239A083A49920022
:10013000521803211940C9001568FF248C40A543BB
:100140002C1C80258D40291C214301331160202B5C
:10015000EBD1324B8A221860314B1A70314B24227A
:100160005A70A0221A709A799107FCD59A79D5060F
:10017000FCD498790C212B4A01400829F9D103219C
:100180001171402151719A799106FCD59A795506E1
:10019000FCD52549254A1160224A20211170997900
:1001A0000C220A400C2AFAD1214A224B1A60224A18
:1001B000224B1A60224B00221A60224B07221A603F
:1001C000214A224B1A6062B602F0CAF907F078F8A9
:1001D00001F0DCFE03F06FF8FEE7C046300004F0EB
:1001E00034800440823F0000388004400100000F4A
:1001F0003C80044002D0074000E0074060FDFF1F44
:100200008CFEFF1F8479000094FEFF1F3C0300203A
:100210000000000000F9FF1F00E400E008ED00E02E
:100220000050064000400640000001104480044099
:10023000C0000505048004407FBB000014E000E01E
:1002400018E000E010E000E00000202020ED00E0D9
:10025000FFFFFFFFFFFFFFFFFFFFFFFFFFFFFFFFAE
:10026000FFFFFFFFFFFFFFFFFFFFFFFFFFFFFFFF9E
:10027000FFFFFFFFFFFFFFFFFFFFFFFFFFFFFFFF8E
:10028000FFFFFFFFFFFFFFFFFFFFFFFFFFFFFFFF7E
:10029000FFFFFFFFFFFFFFFFFFFFFFFFFFFFFFFF6E
:1002A000FFFFFFFFFFFFFFFFFFFFFFFFFFFFFFFF5E
:1002B000FFFFFFFFFFFFFFFFFFFFFFFFFFFFFFFF4E
:1002C000FFFFFFFFFFFFFFFFFFFFFFFFFFFFFFFF3E
:1002D000FFFFFFFFFFFFFFFFFFFFFFFFFFFFFFFF2E
:1002E000FFFFFFFFFFFFFFFFFFFFFFFFFFFFFFFF1E
:1002F000FFFFFFFFFFFFFFFFFFFFFFFFFFFFFFFF0E
:10030000FFFFFFFFFFFFFFFFFFFFFFFFFFFFFFFFFD
:10031000FFFFFFFFFFFFFFFFFFFFFFFFFFFFFFFFED
:10032000FFFFFFFFFFFFFFFFFFFFFFFFFFFFFFFFDD
:10033000FFFFFFFFFFFFFFFFFFFFFFFFFFFFFFFFCD
:10034000FFFFFFFFFFFFFFFFFFFFFFFFFFFFFFFFBD
:10035000FFFFFFFFFFFFFFFFFFFFFFFFFFFFFFFFAD
:10036000FFFFFFFFFFFFFFFFFFFFFFFFFFFFFFFF9D
:10037000FFFFFFFFFFFFFFFFFFFFFFFFFFFFFFFF8D
:10038000FFFFFFFFFFFFFFFFFFFFFFFFFFFFFFFF7D
:10039000FFFFFFFFFFFFFFFFFFFFFFFFFFFFFFFF6D
:1003A000FFFFFFFFFFFFFFFFFFFFFFFFFFFFFFFF5D
:1003B000FFFFFFFFFFFFFFFFFFFFFFFFFFFFFFFF4D
:1003C000FFFFFFFFFFFFFFFFFFFFFFFFFFFFFFFF3D
:1003D000FFFFFFFFFFFFFFFFFFFFFFFFFFFFFFFF2D
:1003E000FFFFFFFFFFFFFFFFFFFFFFFFFFFFFFFF1D
:1003F000FFFFFFFFFFFFFFFFFFFFFFFFFFFFFFFF0D
:10040000FFFFFFFFFFFFFFFFFFFFFFFFFEFFFFFFFD
:1004100010B5064C2378002B07D1054B002B02D0DA
:10042000044800E000BF0123237010BD90FEFF1FB1
:10043000000000008479000008B5084B002B03D0B1
:100440000748084900E000BF07480368002B03D0B5
:10045000064B002B00D0984708BDC04600000000A6
:100460008479000094FEFF1F8CFEFF1F0000000037
:1004700037B5036800241D686B461C705C709C7067
:1004800001AB0A1C1C705C709C706946A84737BDA4
:10049000C82040007047FFFF10B50121041C112047
:1004A00001F044FF0223A361014BE36110BDC0468C
:1004B000400000F838B50C1C051C01F07DFC84429E
:1004C00003D0281C211C01F091FC38BD38B5051C57
:1004D000081C0C1C06F0E6FF2B68021C5B68281C3D
:1004E000211C984738BD38B5041CFFF7EFFF051CE9
:1004F000201C02F001FE281838BD10B5031C00684E
:100500009C7A017858680278587A0240032020408B
:100510001C7A0C4201D004210843002A01D0082291
:100520001043821001389A720D2814D804F018F87C
:10053000070A0D0A1310070710130A0D0A07DA68D5
:10054000013207E0DA68013A04E0DA68023201E0D9
:10055000DA68023ADA6010BD10B5037C041C012B86
:1005600003D872B6FFF7C9FF00E072B6E06862B662
:1005700010BDFFFF08B5024B186AFFF7BEFF08BDAC
:1005800064FFFF1F08B5024BD869FFF7B6FF08BD2F
:1005900064FFFF1FF7B5214D071C2C680E1C201CA3
:1005A0001F49019204F004F9002802D01720F52118
:1005B00007E0201C1B4904F0E7F8002803D01720AF
:1005C0000A2101F0D3FE381C04F06EFF011C172035
:1005D00001F000FEFA2001F0A9FF301C04F064FFD6
:1005E000011C172001F0F6FDFA2001F09FFF019891
:1005F00004F05AFF011C172001F0ECFDFA2001F075
:1006000095FF0949172001F0E5FD286804F02CFF4B
:10061000011C172001F0AAFEF7BDC046ECFEFF1F2B
:1006200000007543000020410000DC43F8B50520C0
:10063000012101F07BFE0420012101F077FE03205F
:10064000012101F073FE0620002101F06FFE0C2055
:10065000002101F06BFE0B20002101F067FE0A2053
:10066000002101F063FE0920002101F05FFE0C2053
:10067000012101F029FE0B20012101F025FE0A20B5
:10068000012101F021FE0920012101F01DFE1720AA
:10069000012101F04BFE00210F2001F047FE0C204C
:1006A00001F080FA202001F0A7FA3A4801F028F979
:1006B0000021172001F008FE374801F037FF0C2019
:1006C00001F022FE354EB323002800D1FF230B207A
:1006D000337001F019FE324B424242410A201A7037
:1006E00001F012FE2F4B4242424109201A7001F0E4
:1006F0000BFE2D4F2D4B424242413D681A700122A4
:1007000015402B4C22D1381C01F04AFC00281DD08A
:10071000FF2323736373A373E3732374637401234D
:10072000A374244B65601A686561A560002A00D136
:100730001C60214A1368002B00D09C600023238496
:100740001E4B381C1460236001F02EFC1C490D2246
:100750000023201C01F020F8B0224273F0228273A3
:10076000184AFF2313700373032001F025FB164B77
:100770001860022001F020FB3278031C904200D95F
:10078000131C124ADBB2136011481249124AFFF7D8
:1007900001FFF8BD28FFFF1FB80B000064FDFF1F1D
:1007A0001CFFFF1F1DFFFF1FD4FEFF1F1EFFFF1FAB
:1007B000B0FEFF1FCCFFFF1FDCFFFF1FC074000057
:1007C000F0FEFF1FC4FFFF1F24FFFF1F68FDFF1F78
:1007D00017040000740500002D08000010B5041C6B
:1007E0000178052001F0C2FD6178042001F0BEFD12
:1007F000A178032001F0BAFD10BDFFFFF7B50E1C74
:10080000151C01932627262802DCC743FF17074043
:10081000381C0D2103F05CFF381C0C1C0D2103F06B
:1008200001FF03220E4B5443012808D002280ED0AA
:1008300032781B191A7072785A70B27805E02A78EB
:100840001B191A706A785A70AA789A7007E0019A90
:100850001C1913782370537863709378A370F7BDD5
:10086000F0FEFF1F0C2800DD0C20C343DB171840EF
:1008700003235843044B18180B7803704B784370CC
:100880008B7883707047C046F0FEFF1FF0B587B0CD
:100890000D1C141C02932627262802DCC743FF17D1
:1008A0000740381C0D2103F013FF381C03910D2164
:1008B00003F0B8FE039E071C04AA05A91648B3B2AC
:1008C000012F0AD0022F14D02F7817706E7856702F
:1008D000AC780F7094704E7017E02E7816706E78AA
:1008E0005670AD78957025780D7065784D70A47848
:1008F0000BE02578157065785570A478029D94708A
:100900002C780C706C784C70AC788C700091002155
:1009100000F075FF07B0F0BDF0FEFF1F70B5104C82
:10092000061C201C0D1CFFF717FEAB00984205DCCF
:10093000201CFFF711FEB300984202DA72B6E360A2
:1009400062B6201CFFF708FEC3179B0F1B189B10F5
:10095000301CB34203DB181EA84200DD281C70BD0A
:10096000D8FEFF1FF0B50C2187B00020FFF7D6FF9F
:10097000204B00211B780C2200930B1C071C02F05B
:100980008FFC04F091FD1C4B186004F06DFD011C00
:10099000172001F0EBFC194B1868194B1B68C01AA3
:1009A000184B1A6803D4904202DD101C00E00020AE
:1009B0000021272300930B1C02F072FC05AC03A955
:1009C0008023002504AAFF264B70231C0D708D7018
:1009D00016705670957026706570A570FFF756FFFB
:1009E000381C211C26706570A570FFF73BFF07B00F
:1009F000F0BDC04664FDFF1FECFEFF1F5CFFFF1F44
:100A000060FFFF1F70FDFF1FF0B54B4F89B03868C6
:100A100004F04AFD494E041C306804F045FD484985
:100A200004F082FA011C201C04F09AF8454D26219E
:100A300028600020FFF772FF434B82001A600123F9
:100A400000939623002124229B00039002F028FCAF
:100A50003E493F4A3F4B02901C6808601068001BEB
:100A6000844602983C4C844510DD306804F01CFD3F
:100A7000BF21090604F058FA3149061C286804F021
:100A800053FA011C301C04F04FFA0DE0386804F0F2
:100A90000BFD2668011C301C03F076FE002804D0F4
:100AA000301C296803F0F0FE2060206804F0DCFCB4
:100AB000011C172001F05AFC254C2068254C2368A6
:100AC000224CC01A226803D4904202DD101C00E0C0
:100AD00000200021272300930B1C02F0E1FB802261
:100AE000012305AE06AD07AC5B425242002772708F
:100AF0002B706B702370311C2A1C231C3770B7704D
:100B0000AF706770A770FFF7C1FE32233370737048
:100B1000C823B3708020012340425B42AB70207039
:100B2000A070311C03982A1C231C2F706F706770F3
:100B3000FFF764FE09B0F0BD68FDFF1F74FDFF1FE5
:100B40000000704254FFFF1F24FFFF1F70FDFF1FB6
:100B50005CFFFF1F60FFFF1FECFEFF1F30B5224947
:100B600087B02248FFF7BFFC0C210020FFF7D6FE1C
:100B70001F4B00211B780C2200930B1C041C02F05D
:100B80008FFB04F091FC1B4D286004F06DFC011CF0
:100B9000172001F0EBFB286804F066FC164B1749A0
:100BA0001860174B1A688A4201DC103200E00022FC
:100BB0001A600021B4221868920000940B1C02F005
:100BC0006FFB002403A904AA05AB80250C704D70AF
:100BD0008C701470557094701C705D709C70FFF771
:100BE00055FE07B030BDC046D87400004C0100204F
:100BF00064FDFF1FECFEFF1F68FDFF1F0B030000DD
:100C000018FFFF1F08B502480249FFF76CFC08BD3A
:100C10004C010020E774000008B502480249FFF7C4
:100C200062FC08BD4C010020F17400001FB50F20CC
:100C300001F00CF800210C230093064A0B1C02F073
:100C40002FFB03A9FF230B704B708B70FFF70AFE7D
:100C500005B000BDFF0F000070B5062001F054FB89
:100C6000031C581E8341114ADBB21178002B08D0B7
:100C7000002903D10E4908680E490860002013704E
:100C800070BD181C0029FAD0094C0A492668096869
:100C9000094D761A0320AE42F1D820681C1C411A77
:100CA000064888425C410220001BE8E758FFFF1F0E
:100CB0005400002020FFFF1FC3090000570200005E
:100CC00007B50138052844D801AB03F049FC030CF3
:100CD00017222D38FF221A70181C00225A709A70A1
:100CE000FFF77CFD35E000221A705A70181CFF22B5
:100CF0009A70FFF773FDFFF787FE2CE0002280213A
:100D0000181C1A7059709A70FFF768FDFFF726FFDC
:100D100021E0FF221A705A70181C00229A70FFF707
:100D20005DFDFFF76FFF16E080220021181C1A708E
:100D300059709A70FFF752FDFFF76EFF0BE0FF222C
:100D40001A70181C5A709A70FFF748FDFFF76EFF73
:100D500001E0FFF707FE07BD30B585B0002800D1E0
:100D600097E0032838D14F494F48FFF7BCFB0024D8
:100D700002AA03AD1470547094700C232C706C7024
:100D8000AC704A48211C009500F039FD48480178B4
:100D900000F0AEFC281C2C706C70AC70FFF71EFDD0
:100DA0001720211C01F0E2FA42484349434AFFF769
:100DB000F1FB1720211C01F0D9FA062001F0A4FA5A
:100DC000002803D1012001F0B1FBF6E73B483A4986
:100DD000384AFFF7DFFB60E0012839D1481E0528BB
:100DE00056D803F0BDFB030E1C582E40344B1A6836
:100DF00072B6344BDA6062B6334B00221A600223BB
:100E00004CE072B62F4B0022DA6062B62E4B002205
:100E10001A602B4B03201978FFF74CFB3DE072B6AC
:100E2000284B0024DC6062B6284B02201978FFF7BB
:100E300041FB254B00221720211C1A6001F096FA75
:100E400004E072B61F4B0022DA6062B6062325E08A
:100E50000123022822D1481E052819D803F080FB5F
:100E60000303121D1D12194B00211868342300932F
:100E7000FF220B1C02F014FA72B6124BD86062B655
:100E800003230BE072B60F4B0022DA6062B604E077
:100E900005E00B1C02E0052300E00123181C05B04F
:100EA00030BDC046057500004C010020F0FEFF1F5C
:100EB000C4FFFF1F2D080000740500001704000088
:100EC00024FFFF1FD8FEFF1FECFEFF1F68FDFF1F62
:100ED000304BF7B51B681A075BD1012001F026FBE8
:100EE0002D4B0A2118680130186003F0F1FB2B4DDF
:100EF0002B4E00290ED1286806F006F9294C021C59
:100F00000B1C201C00F02FFD201C00F079FD06F0CA
:100F1000C7F830600F2000F099FE14220D212860E0
:100F2000214800F0DCFCFFF797FE204C2178FFF70A
:100F300013FF2070FFF7C4FE1D48017800F0D8FBB6
:100F40001C4B2A689A4204DD1B48011C021CFFF757
:100F500021FB1A4B1A4C186806F048F90B1C0221A9
:100F6000021C0091201C02F013F9164F201C391CA2
:100F7000FFF7ACFA2968201C02F000F9391C201C8C
:100F8000FFF7A4FA3168201C02F0F8F8201C02F0E8
:100F9000B3F8F7BD5400002050FFFF1F5CFFFF1F98
:100FA00060FFFF1F28FFFF1FF0FEFF1F6CFDFF1FEC
:100FB000C4FFFF1FBE0F00002D080000ECFEFF1F46
:100FC0004C0100200F75000010B5041C01F08AFAD6
:100FD0002388C01A80B23128F8D910BDF0B585B089
:100FE000029003910093002494460193221C251C37
:100FF000261C0A9F644665787A7812062D0601D170
:101000005240C046AD1800D3ED4300D32D063C79C5
:101010002D0E65437A78FC79A21A7A702E0441600D
:10102000C046C0460324013CFDD1760000D2816059
:10103000C046C046C0460824013CFDD18160C04680
:10104000C0460524013CFDD14160C046C046032492
:10105000013CFDD1760000D28160C046644625780F
:10106000C046C0460724013CFDD18160C046C04651
:101070000524013CFDD14160C046C0460324013C2B
:10108000FDD1760000D28160C0463A7812062D0666
:1010900001D15240C046C0460624013CFDD18160CA
:1010A000C046C0460524013CFDD14160C046C04653
:1010B0000324013CFDD1760000D28160C046AD180A
:1010C00000D3ED4300D32D060724013CFDD1816000
:1010D000C046C0460524013CFDD14160C046C04623
:1010E0000324013CFDD1760000D28160C046FC782B
:1010F0002D0E6543C0460724013CFDD18160C046EA
:10110000C0460524013CFDD14160C046C0460324D1
:10111000013CFDD1760000D28160C0463A78BC79AE
:10112000A21A3A70C0460624013CFDD18160C04637
:10113000C0460524013CFDD14160C046C0460324A1
:10114000013CFDD1760000D28160C046C046C04659
:101150000824013CFDD18160C046C0460524013C05
:10116000FDD14160C046C0460324013CFDD176005C
:1011700000D28160C0462E04C0460824013CFDD147
:101180008160C046C0460524013CFDD14160C04697
:10119000C0460324013CFDD1760000D28160C046E8
:1011A000C046C0460824013CFDD18160C046C0460F
:1011B0000524013CFDD14160C046C0460324013CEA
:1011C000FDD1760000D28160C0466446A578C04655
:1011D000C0460724013CFDD18160C046C0460524BD
:1011E000013CFDD14160C046C0460324013CFDD115
:1011F000760000D28160C046BA7812062D0601D171
:101200005240C046C0460624013CFDD18160C04624
:10121000C0460524013CFDD14160C046C0460324C0
:10122000013CFDD1760000D28160C046AD1800D3EC
:10123000ED4300D32D060724013CFDD18160C0465B
:10124000C0460524013CFDD14160C046C046032490
:10125000013CFDD1760000D28160C0467C792D0E24
:101260006543C0460724013CFDD18160C046C046AD
:101270000524013CFDD14160C046C0460324013C29
:10128000FDD1760000D28160C046BA783C7AA21ABD
:10129000BA70C0460624013CFDD18160C046C046FC
:1012A0000524013CFDD14160C046C0460324013CF9
:1012B000FDD1760000D28160C0467C7AA444C0464D
:1012C000C0460724013CFDD18160C046C0460524CC
:1012D000013CFDD14160C046C0460324013CFDD124
:1012E000760000D28160C0462E04C0460824013C2E
:1012F000FDD18160C046C0460524013CFDD141605E
:10130000C046C0460324013CFDD1760000D2816076
:10131000C046C046C0460824013CFDD18160C0469D
:10132000C0460524013CFDD14160C046C0460324AF
:10133000013CFDD1760000D28160C04664466578EC
:10134000C046C0460724013CFDD18160C046C0466E
:101350000524013CFDD14160C046C0460324013C48
:10136000FDD1760000D28160C0467A7812062D0643
:1013700001D15240C046C0460624013CFDD18160E7
:10138000C046C0460524013CFDD14160C046C04670
:101390000324013CFDD1760000D28160C046AD1827
:1013A00000D3ED4300D32D060724013CFDD181601D
:1013B000C046C0460524013CFDD14160C046C04640
:1013C0000324013CFDD1760000D28160C0463C7907
:1013D0002D0E6543C0460724013CFDD18160C04607
:1013E000C0460524013CFDD14160C046C0460324EF
:1013F000013CFDD1760000D28160C0467A78FC794C
:10140000A21A7A70C0460624013CFDD18160C04614
:10141000C0460524013CFDD14160C046C0460324BE
:10142000013CFDD1760000D28160C046C046C04676
:101430000824013CFDD18160C046C0460524013C22
:10144000FDD14160C046C0460324013CFDD1760079
:1014500000D28160C0462E04C0460824013CFDD164
:101460008160C046C046C0460324013CFDD1013B1B
:1014700001D0C046D3E5009805B0F0BD7FB5037A32
:1014800003A90B70437A4B70837A8B70837BCB708C
:10149000C37B0B71037C4B71C37A8B71037BCB7164
:1014A000437B0B72437C4B720CC8009103480221B2
:1014B000FFF794FD002007B000BDC046400000F8D3
:1014C00070B5174B07211A7801320A401A700123B0
:1014D00013408B40910701D540210B4304210A4260
:1014E00001D0202213431033DEB2041C0025A17B5F
:1014F0000020814205D08020400003F093F80130A5
:10150000C0B2031C73431B12E0722372002801D087
:101510000138E07201350134032DE8D170BDC046B9
:10152000ACFEFF1F30B587B001AC62601A78019144
:10153000A2735A78051CE2739B78807C237401287F
:1015400003D1201CFFF7BCFF06E000236373237365
:10155000E372A37263722372281C00232030637429
:10156000FFF732FD72B6201CFFF788FF62B600F06D
:10157000B9FF288407B030BD30B587B001AC6260D8
:101580001A780191A2735A78051CE2739B78807CCB
:101590002374012803D1201CFFF792FF06E00023EB
:1015A00063732373E372A37263722372281C032391
:1015B00020306374FFF708FD72B6201CFFF75EFF52
:1015C00062B600F08FFF288407B030BD38B500F058
:1015D000DBFB0820022100F0A9FE0720022100F019
:1015E000A5FE1F4B1F4C1D6E2A1C103222601A1CB8
:1015F000683210782072596D5C330A1C10326260B8
:101600001A780023E360FA236272DB01013BFDD10B
:101610002B7C097C1840431E9841C3B20A4201D07A
:1016200002221343104D0820104904222C62A37299
:1016300000F092FD0123042207200D49EC61237480
:1016400000F08AFD237C962101332374094C201C71
:1016500000F07AF9201C0849084A05F019FE38BD47
:1016600030750000D8FEFF1F64FFFF1F75050000E6
:101670008505000028FFFF1FEB18000060FDFF1F1D
:10168000002330B50370437083709A4211D00C1C54
:101690000C34E55C0334E45C002D07D0002C05D04D
:1016A000013501346C435443240CC4540133032BDF
:1016B000EDD130BDF8B50B4C071C2268531C2360DC
:1016C0008A420EDB084E094DFA20800031685843EB
:1016D0002B68C91A02F058FF36680023788023600F
:1016E0002E60F8BDD0FFFF1F54000020D8FFFF1F61
:1016F000F0B587B0051C03916B68184C002B06D021
:1017000000F0F0FE2368C01A6B689842F4D300F032
:10171000E9FE134B20601C68002C19D0A37C0193B8
:101720006B88632B01D80023A374236867685E6805
:101730006369211C05A8039A0293FFF7A1FF201CEF
:1017400005AB391C029AB047019BA374A468E3E778
:10175000281C1921FFF7AEFF07B0F0BDD4FFFF1F13
:10176000CCFFFF1F10B5041C002A09D000290FD0A0
:10177000084802F057FF6368984206D2181C04E03C
:10178000002904D0034802F04DFF606000E0416092
:1017900010BDC04640420F00F8B5041C0F1C161CBB
:1017A0001D1E01DC151C00262368201C9B68984721
:1017B00003235E432368BF19676065611B69201CB2
:1017C00098470122011C0248FFF7CCFF201CF8BDFE
:1017D000C4FFFF1F024BFF221A7000225A8070477D
:1017E000C4FFFF1F03784B431B12037043784B4326
:1017F0001B12437083785943091281707047F0B50A
:1018000089B01D1C07900C1C0E9B8D420ED21778C0
:101810001E781F705778997858785F709778917014
:10182000211C9F702C1C167050700D1C1678187897
:1018300002965778801B039792785F7804929B7882
:10184000039E9B1ADB0105932B1BBF1B9BB2C001A0
:10185000FF010126002B00D09EB236B2311C02F0EF
:10186000E1FE400080B2311C0690381C02F0DAFE26
:101870004700311CBFB20598019702F0D3FE029FCA
:10188000039E3B02049F400080B232023902AC4208
:1018900014D803266643079F0134BE191F12377000
:1018A000171277700F12B770069E019F9B19D219FD
:1018B00009189BB292B289B2A4B2E8E709B0F0BDB0
:1018C00070B503254D43161C041C4519AC4205D0C8
:1018D000201C311CFFF786FF0334F7E770BD08B505
:1018E000D243D2B2FFF7ECFF08BD10B5041C00696B
:1018F000002801D005F014FD201C10BDFFFFFFFFE4
:1019000030B50E4B0C4A0E4C0E4D8260C3608461A4
:10191000C5610462456200214170817004788C4287
:1019200007D90569CC002C19013122606360C9B266
:10193000F4E730BDC046C0460000000000000000D3
:10194000000000000000F87F10B5041C0170C80002
:1019500005F0DCFC2061002800D12070201CFFF77E
:10196000CFFF201C10BDF7B5141C0269061C1D1CFE
:101970000192002A41D08778C1688068FF00D7199A
:101980003A687B6805F058F8B060F1603C607D60B3
:10199000B778019AFB00D3181A685B68B068F168E1
:1019A00003F02EFE01373378FFB2B060F160B770FC
:1019B00001939F4201D10023B3707778002F02D1A9
:1019C0003462756207E0201C291CB269F36902F0D9
:1019D000A1FE002802D0B461F56109E0201C291C99
:1019E000326A736A02F0AAFE002801D0346275627E
:1019F000019A974201D201377770F7BDFFFFFFFFD1
:101A0000F7B54278071C0192002A1DD00026114D1F
:101A10000F4C019AF3B293420CD23A69F300D318F7
:101A2000201C291C1A685B6803F0EAFD0136041CBF
:101A30000D1CEEE7101C05F067FB021C0B1C201CA4
:101A4000291C04F0FFF801E00348044903B0F0BD8D
:101A50000000000000000000000000000000F87F0F
:101A6000F0B572B61B4B1A78002A30D01A4A1068AB
:101A70001A4A16681A4A301815681A4A4019146822
:101A8000194A00191168194A401812681849801833
:101A900080B2184A4008104380B2086016481749BF
:101AA000096807681648791806681648891905688C
:101AB000154849190468154809190068091889B2B8
:101AC00049080A43124992B20A6000221A7062B6AB
:101AD000F0BDC046E1FFFF1F38B003403CB00340FB
:101AE00040B0034044B0034048B003404CB0034012
:101AF0002CB003400080FFFF5CB0034058B00340AF
:101B000060B0034064B0034068B003406CB0034071
:101B100030B003401B4B1C4A19781C4B082901D1DB
:101B2000002102E00A2903D138211160132206E0C6
:101B30000C2901D1342100E03C21116012221A60ED
:101B4000134B1A78134B002A01D0002200E0012227
:101B50001A60114B1A78114B012A01D880220CE02F
:101B6000042A01D8842208E0082A01D8852204E04A
:101B7000102A01D8862200E087221A60084B012231
:101B80001A70704778FDFF1F08B003400CB0034087
:101B9000E3FFFF1F20B0034079FDFF1F24B0034087
:101BA000E1FFFF1F08B50C2804D9102800D9102028
:101BB000102306E00C230A2803D80823984200D9F2
:101BC0000A23094AD9B2081A1070084A10788342C9
:101BD00009D0074B11701B78002B02D0054B002257
:101BE0001A60FFF797FF08BDE0FFFF1F78FDFF1F9A
:101BF000E1FFFF1F24B0034010B5114B041C1B78FC
:101C0000002B01D0FFF72CFF0E4A0023012C02D934
:101C1000042C02D8042313600EE0082C03D80523FB
:101C20001360082308E0102C03D806231360102348
:101C300002E0072313602023034A137010BDC0463F
:101C4000E1FFFF1F24B0034079FDFF1F70B5031EA5
:101C50000C2B0DD9021C0E3AD2B20C2A07D91A1C31
:101C6000263A193B0020DBB2012A32D800E0131CCF
:101C7000184AD45C184B1B78002B01D0FFF7F0FEFC
:101C800072B6164B1022610605D51968914319608A
:101C90003F231C4002E019680A431A60104B114DA3
:101CA00001221C602A7062B61E1C72B633681A06C6
:101CB00008D50D4B186800232B7062B60B4B1B78B0
:101CC000184106E02B78002BDBD062B601F026FB32
:101CD000EBE770BD11750000E1FFFF1F0CB0034082
:101CE00000B00340E2FFFF1F10B00340E0FFFF1F02
:101CF0000C4B8022196812060A431A600A4B1A78A4
:101D00000A4B002A01D1D02200E090221A70084B21
:101D1000984200DD181CC343DB171840054B1880A0
:101D20007047C0463C800440E3FFFF1F21F00340A2
:101D3000FF0F000000F003400E4B10B51940C02308
:101D4000DB0419430C4B19600C4B1A6072B60C4C37
:101D500001230343201C984762B622787023134066
:101D600000D02370074B80221968D2000A431A6002
:101D700010BDC046FCFFFF00040002400800024006
:101D8000000002400C3000F0F8231B021988084ABA
:101D9000914203D1074A023B138008E080220233BC
:101DA00052029342F2D10222024B52421A807047F1
:101DB000FFFF0000E4FFFF1F38B50B4D041C2A880D
:101DC000002A02D1FFF7E0FF2A88FF207F2C0AD8E3
:101DD000F8231B029A4206D31988CDB2A54200D13E
:101DE000080A0233F6E738BDE4FFFF1FF0B5484F9D
:101DF000A7B0041C388802AE0D1C01904549301C68
:101E00000E2205F097FA7F2C00D97FE00199002976
:101E100003D1FFF7B9FF3E4A11883F4B0231994287
:101E20000CD83B482A02144301808A0702D43B4A5B
:101E3000224301E022041A43301C65E000231820ED
:101E4000C018FF22694601334254802BF7D1F82392
:101E50001B021988CAB27F2A02D8090A06A881542F
:101E60008022023352029342F3D106A90D552C4B26
:101E70002C4D2B6072B62C4C01233343201C019354
:101E8000984762B62278702313402A1C251C002B29
:101E900000D02370254C80202368C00003432360BA
:101EA000234B136072B6204F0199381C884762B6E5
:101EB0002D78702380221D40D200002D00D03D706F
:101EC0002368002713432360F824240206AAD35D65
:101ED000FF2B0ED0A00702D41D023D4308E03A04B8
:101EE00015431B061D43301C211C2A1CFFF724FF31
:101EF00002340137802FE9D105490C80A20705D5AE
:101F0000064A301C2A43211CFFF716FF27B0F0BDFC
:101F1000E4FFFF1F20750000FFFF00000000FFFF2F
:101F200000F8000904000240000002400C3000F0FC
:101F300000FC0009024B1A6801321A607047C04663
:101F40005400002010B50B4C23685A0301D500F053
:101F50002DFC23685A0501D501F00EFC23681A05F3
:101F600001D501F04DFE2368DA04ECD502F08CF8BF
:101F7000E9E7C0463480044008B5FFF7E3FFFFFF00
:101F8000014B00221A607047008104407047FFFF38
:101F9000024A136818181060181C70477CFDFF1F58
:101FA0000078434258417047012303707047FFFF98
:101FB000EFF31380002821D1EFF31082002A1FD104
:101FC000EFF30583002B0FD0101C0F2B0ED91A1C1A
:101FD000103A92080B4903209200034052188340A4
:101FE0001068D840C0B201E080204000EFF31182B9
:101FF000002A05D0824203D2101C01E00120404299
:102000007047C04600E400E0434B10B51C681C60FC
:10201000230705D5414B5A6A002A01D05B6A9847CD
:10202000E30605D53D4B9A6A002A01D09B6A984782
:10203000630605D5394BDA6A002A01D0DB6A984776
:10204000230605D5354B1A6B002A01D01B6B984728
:10205000A30605D5314B5A6B002A01D05B6B98471C
:10206000E30705D52D4BDA6B002A01D0DB6B9847CF
:10207000A30705D5294B9A6D002A01D09B6D98477F
:10208000630705D5254BDA6D002A01D0DB6D984733
:10209000234B1C681C60E30705D5204B9A68002A77
:1020A00001D09B689847230605D51C4B5A69002A26
:1020B00001D05B699847E30605D5184B9A69002A59
:1020C00001D09B699847630705D5144BDA69002A4C
:1020D00001D0DB699847230705D5104B1A6A002AFF
:1020E00001D01B6A9847A30705D50C4B9A6B002AB1
:1020F00001D09B6B9847A30605D5084B1A6D002AA3
:1021000001D01B6D9847630605D5044B5A6D002A14
:1021100001D05B6D984710BDA0B00440E8FFFF1FE1
:10212000A0C004400A4B10B51C681C60A30705D56D
:10213000084BDA68002A01D0DB689847630705D5A9
:10214000044B1A69002A01D01B69984710BDC0468C
:10215000A0900440E8FFFF1F70B5041E1A2C2CD875
:10216000042A2AD8101C02F0FBF90709050B03000A
:102170000B2306E00A2304E0082302E00C2300E01E
:1021800009230C2262430D480D4E82180D485268F7
:10219000051CB8352E600C4DBC30056072B60B487E
:1021A0001568A40028400A4D10606151802149043F
:1021B00008431B041843106062B670BD3075000000
:1021C0002521000000F9FF1F09200000FFFFF0FF9C
:1021D000E8FFFF1FF7B5051C0F1C081C2D4902F076
:1021E000D3FA002802D002262B4B01E02B4B01260C
:1021F000019300240198E04003F0B2F9DE21890543
:1022000002F092FE011C381C02F0DCFA002802D118
:102210000134072CEED10198E04003F0A1F9391CFC
:1022200002F09EFCFC21890502F0A8FF02F0F2FA00
:102230001B4B984200D9181C2B1C103B012B06D8B5
:10224000184B194900221A600A60184A1AE02B1C20
:10225000163B012B06D90D33012B03D9062D01D0D6
:10226000142D06D1124B134900221A600A60124A3B
:1022700008E0033D012D0BD8104B114900221A60D4
:102280000A60104A106007221440F60034431C60B4
:10229000F7BDC046001BB740127A0000006CDC029C
:1022A000FFFF0000009003400490034008900340AB
:1022B00000800340048003400880034000A00340E6
:1022C00004A0034008A0034010B51A2818D80C2316
:1022D00058430C4A835810181C7D027A224205D0BC
:1022E000002901D01A710BE01A7209E043681A68DC
:1022F000002902D003210A4301E002218A431A6027
:1023000010BDC0463075000000231A280AD80C23DF
:102310005843054A81581018027A0B7C13405A1E04
:102320009341DBB2181C70473075000010B51A28B5
:1023300018D80C2358430C4A141863688258247A1E
:10234000012904D1117D0C431475A22205E0107DF2
:10235000A0431075002902D18022520001E004221E
:10236000FF321A6010BDC0463075000038B50A1C37
:10237000041C434B1A280ED11B780B2B03D80C21BD
:10238000CB1A9A4003E00C2B01D00C3B1A41101CD5
:10239000FFF7AEFC72E0197801252B1C8B40002A58
:1023A00001DC002102E09A4205D3291CFFF78CFFD3
:1023B000201C291C60E0231C103B0338012B01D892
:1023C000304B05E0C3B2012B01D82F4B00E02F4B5F
:1023D0001B6801335343CB40142843D802F0C0F8A4
:1023E000353B421F4242151A4242424242292F4285
:1023F0004224420B1000264A1360264A264B2FE047
:10240000264A1360234A264B2AE0264A1360214AB3
:10241000254B25E0254A13601E4A254B20E0254A1E
:1024200013601C4A244B1BE0244A1360194A244BB6
:1024300016E0244A1360D1229200234B10E0234A75
:102440001360D1229200224B0AE0224A1360D1226B
:102450009200214B04E0214A1360D122204B9200CC
:102460001A600BE001217F2A00DC0021C9B2201C88
:10247000FFF72AFF201C0121FFF758FF38BDC04697
:1024800080FDFF1F0890034008A003400880034020
:10249000108003404404000004B00440188003404E
:1024A00008B00440208003400CB004402880034062
:1024B00010B004403080034010C004403880034016
:1024C00014C004401090034000A004401890034042
:1024D00004A0044010A003400490044018A003404E
:1024E0000890044072B60C4B0C491A680C4B1B68E0
:1024F000096862B6480104D53221914289414942B6
:102500005B18FA20800043430648821A064842437B
:10251000920D98187047C04618E000E004ED00E006
:10252000540000207FBB00005555010038B5041C45
:10253000FFF7D8FF051C002C0FD0FFF7D3FF074B88
:10254000401B984206D9013C002C06D0FA239B0080
:10255000ED18F2E700F0E2FEEFE738BDE703000018
:102560001C4B8022D20510B51A60802212061A6018
:10257000194B002018601949194B1A4A1960282371
:102580001360194A194C1360194A1360194A1360F1
:10259000194A1360194A136009222260184C2060FE
:1025A000184C2160184C2360184C2360184C226092
:1025B000184C20601848016018490B6018490B60DE
:1025C000184B1A60FFF7A6FAFA20FFF7AFFF00F0EA
:1025D000D5FB10BD00E100E004800340FFBF000018
:1025E000088003400C8003401480034000800340B7
:1025F0001C800340248003402C800340348003402F
:1026000004900340089003400C9003401490034052
:102610000090034004A0034008A003400CA0034026
:1026200014A0034000A00340F0B50B4F02223B78FA
:102630000A4E1A43D2000A4DB418606028788824E4
:10264000002800D0C82409040C43B4500122504093
:10265000534028703B70F0BDC000002000F8FF1F01
:1026600038010020431E10B5032B0FD872B6084A5C
:1026700099008858002807D044685B008C50054AB0
:1026800001889C5A611A995262B600E0002010BD80
:10269000B000002024030020431E0020032B09D893
:1026A00072B6054A9B009B58002B02D001305B6834
:1026B000FAE762B67047C0460401002038B572B62A
:1026C0000123164A9A18013A127811071CD5144AA8
:1026D0005C01A5589900002D05D1131908305860E8
:1026E000104BA3500AE001242143C9008C58002C50
:1026F0000AD15318083058600B4B8B500B4B1A788B
:10270000013A1A7062B608E00133052BD9D162B6DE
:10271000064B00221A7000F0A5FB38BD9876000029
:1027200000F8FF1F88004000C80040002E01002074
:10273000421E10B5032A30D8022380001843174BDD
:10274000C0001B1872B6164CA05C032809D801F013
:1027500007FF140216050833022011E00833042095
:102760000EE01048920014580F4B002C01D111506C
:1027700001E09858416099500EE0032000E00520E8
:10278000A0540A1C08325A608822180700D5C822B3
:10279000098809040A431A6062B610BD00F8FF1FD9
:1027A0006C0000200401002014010020F7B5B54999
:1027B0000C780E1CE4B262071DD5B34B1B78002BBE
:1027C00016D0B24A1378DBB2002B05D0013BDBB246
:1027D0001370002B00D100BEAD4A1378DBB2002B82
:1027E00006D0013BDBB21370002B01D100F060FC7E
:1027F000A44D04232B700825221C2A4000D154E24A
:10280000A44BA54C1B78DBB21E099A08002E00D001
:10281000DDE1D50065192F686A68B806000F013838
:102820000C2800D9D0E101F0A5FE93019301CF015E
:10283000CF01CF01CF01CF01CF01AC01CF01CF013B
:10284000CF010D0095491368954F5268954829604E
:10285000954D964900263B607A609BB201222E601E
:102860002661A66102708B4218D8D021C9008B4224
:1028700000D3E5E0812191408B4200D1C2E006D82F
:10288000802B00D1A9E0822B00D1ABE0F5E0884A93
:10289000934200D1C5E0A022D20017E085498B42C7
:1028A00000D152E10DD8882109018B4200D18EE080
:1028B00090221201934200D0DFE0BA78724B1A7076
:1028C00009E07D4A934200D1CFE07C4A0026934242
:1028D00000D115E1D1E0A319196A090603D5586A98
:1028E000083800F0BFFA0836802EF4D100252E1CDF
:1028F000734AA858002805D04368019300F0B2FA43
:102900000198F7E76E496F4B6F4A4851E850A85855
:10291000002805D04368019300F0A4FA0198F7E776
:102920006A4B6B4AE8507300D0526749694B485173
:10293000F05C0238032807D801F012FE02040204FA
:10294000002200E001229A5501360435042ECFD131
:10295000614A002313700125161C604BEA18604B76
:102960009200EB18013B1B781370190720D500F07B
:102970005BFA6B01002805D0E21808305060594A14
:10298000E25003E0E05033780133337000F04CFA4A
:102990000122AB001343DB00002805D0E218083009
:1029A00050603E4AE25003E0E05033780133337028
:1029B000AB0002221A43D2000021A150032213438C
:1029C00093400135E150052DC7D10E1C98E02E4BE8
:1029D000454C1B78161C237093E0434C26706670A0
:1029E00002268EE0BB88042B47D83F4C3F4D9B000E
:1029F000267066705B191B780226334200D180E096
:102A000022707EE0BA887F231340042B35DC7E8859
:102A1000002E32D135499B005B181A7802218A4377
:102A200029E0BA887F231340042B26DC7E88002E01
:102A300023D12E4A9B009B181A7802210A431AE0E0
:102A40007A88B9882A4B5C68002C16D01888904286
:102A500009D15888884206D1120A032A01D1267862
:102A60004FE01E894DE00C33EDE7224B1A68224BF4
:102A70001A60BA78214B1A7042E01C4B0F221A7070
:102A800063E0C0468020074037010020C1000020DD
:102A9000390100209020074000F8FF1FC8004000C7
:102AA0002401002038010020580000208106000089
:102AB0000203000021200000212200002123000049
:102AC000B00000205C000020040100201401002060
:102AD000240300206C0000202E01002030C80110CB
:102AE00098760000880040002F010020C020074099
:102AF0009C76000054000020340300204801002090
:102B0000341CFB889E4200D91E1C371E402F00D962
:102B10004027201C391CFFF787FDE419F61B03D161
:102B2000351C402F04D010E04025B54200D9351C9B
:102B3000201C291CFFF778FD6419761B01D1402D5C
:102B400003D1754D754B2C601E800122744B3AE009
:102B5000744B1988744B994210D10023D05C73498F
:102B6000C8540133072BF9D10B68862B02D1704B67
:102B70000F221A700020011CFFF756FD6D4B2B60D1
:102B800022E0654F3D68002D13D064490E88341E45
:102B9000402C00D94024281C211CFFF745FD361B82
:102BA0005E4AB6B21680002E01D1402C00D12E19FB
:102BB0003E605C4BA0221988D200914204D10022D1
:102BC0005A709A785C4B1A700122554B61E0D20022
:102BD000A4186068013E0838F6B22B4036D000F0E9
:102BE00041F95649B0004258554B002A1BD0556850
:102BF0004550111C985D0831616003280BD801F025
:102C0000AFFC02040608032104E0022102E00521D2
:102C100000E0042199558823270700D5C82312888E
:102C2000120413433CE0985D032808D801F098FC97
:102C300039390204002200E001229A5531E02C408B
:102C4000624262410324A41A9C552AE062880280F1
:102C5000002A20D03B4D43804360B3005F593A497E
:102C6000002F01D1585101E0CD586860C850374B52
:102C70007600F15A5218F25200F0D6F8002804D02B
:102C80000830606021070AD507E0314B20601A78D0
:102C900001321A7005E02C4201D0264B00E02D4B8A
:102CA00023602D4A0823137081E5012004421ED0C1
:102CB0001B4902230B70294B264C1A70284B294DB7
:102CC0001C609C60284C1A61DC609A615D60274B37
:102CD0000D241C70264CFF232370174C3370227078
:102CE000244A1370244B9F221A70087013E063B2B9
:102CF000002B04DA1D4B0D221A708023337002233F
:102D00001C4204D01A4A1178C9B2117033701023D2
:102D10001C4200D03370F7BD580000202C01002069
:102D20009420074024010020212000002C030020D3
:102D3000C1000020C8004000982007400401002086
:102D40006C000020B00000205C0000202403002064
:102D50002E0100208800400080200740C000002095
:102D600000F8FF1F70000020C4000020C0200740B2
:102D7000882007408C2007408420074010B501F0D0
:102D8000F9F900221A4B0021D150981808324160FD
:102D9000882AF7D1174A80201468C00220431060A7
:102DA000180A154AC0B21070180C144AC0B210703C
:102DB000134A1B0E1370134AFF231370124A134851
:102DC0001370134A137001220270124801701249E5
:102DD0000A70124A116899430B1C70210B4313604F
:102DE0000F4B802252041A600E4B10221A7010BD35
:102DF00000F8FF1F348004409C200740B0200740AB
:102E0000B4200740802007408820074094200740D6
:102E100010200740002107408420074018E400E00C
:102E200000E100E00821074038B572B60B4C256878
:102E3000281C01F0D1FC0B2802D962B600200CE05E
:102E400080231B06C3409D43256062B64823584338
:102E5000034B181800230360436038BD84FDFF1F37
:102E600000FAFF1F10B5041C0E484821201A01F07B
:102E70008BFB0B2815D80C4B1B78002B07D00B4B6A
:102E80001B78002B03D0201CFFF718FC09E072B65A
:102E90008022074B1206C240101C1A6810431860AB
:102EA00062B610BD00FAFF1F2E010020370100207E
:102EB00084FDFF1F38B5114C2368002B0CD020680F
:102EC0004288531C8218157A0288934212D3FFF766
:102ED000C9FF002323600EE0094B1B78002B02D1B1
:102EE0000120404208E00320FFF7BCFB20600028DF
:102EF000E5D1F5E74380281C38BDC04644010020D9
:102F00003701002010B50D4C2368002B03D0236837
:102F1000002B0ED103E00A4B1B78002B02D10120BD
:102F2000404209E00320FFF79DFB20600028EED11E
:102F3000F5E75A889B18187A10BDC0464401002056
:102F400037010020054B9888054B1B68002B03D0E8
:102F50001A885B88D31AC0187047C0462403002023
:102F600044010020F7B5304D0123071C0C1C2B70C9
:102F7000002C56D02D4E3068002827D12C4A0192C3
:102F80002C4B1B78DBB2002B03D12B70012040426D
:102F900049E00420FFF780FB072808D801232B70A5
:102FA000FFF742FF214B186000280FD128700198CD
:102FB000214B01380190002802D01A78002A02D053
:102FC00001221A70E2E700F0A9F9D9E71A4B0022B2
:102FD00031681A704B884020C01A0094844200D98E
:102FE0000090181C009A08309B1808184B8001901C
:102FF000A41A00230098834204D0F85C019AD054AC
:103000000133F7E7FF184B883F2B06D940230B808D
:103010000420FFF78DFB00233360084B05221A7054
:10302000A6E72C70201CFEBD3A0100203C010020C8
:1030300009750000370100204001002039010020FF
:1030400007B56B46D8710733181C0121FFF78AFFBB
:103050000EBDFFFFF8B5124B1B78002B1ED0114F91
:10306000114B3C6801261E70104D002C09D0002623
:103070002E70638804202380211CFFF759FB3E60DB
:1030800009E0FFF7D1FE011E04D004202C70FFF7E9
:103090004FFB00E02E70044A00231370F8BDC046B9
:1030A000370100203C0100203A01002039010020B6
:1030B00038B50E4B1D78EDB2002D15D10C4C2168A2
:1030C000002906D04B8804200B80FFF731FB2560D8
:1030D0000AE0FFF7A9FE011E03D00420FFF728FB3A
:1030E00002E0044B01221A7038BDC0463A010020AC
:1030F0003C0100203901002037B50224051C221CA8
:1031000001A8054904F016F92B68281C5B6801A981
:10311000221C98473EBDC04674760000F0B585B0CD
:103120006B460E338EB2144C0D0C013666436C4365
:10313000A5B2370CAE19F619250C2C19360CA519A9
:103140006D080A266E43891B30311C1C1970013B27
:10315000002D01D0291CE5E7211C002A03D01C1CEE
:103160002D224B1E1A70036804A9E24352185B68B3
:10317000211C984705B0F0BD33330000002208B58C
:10318000914201DA49422D22FFF7C8FF08BDFFFF37
:10319000F0B589B01C1C0EAB1B78061C151C0193E6
:1031A000101C211C374B364A01F0B4FA002805D018
:1031B0008021090601226418029200E00290002793
:1031C000314A324B01998F420AD0101C191C304AE7
:1031D000304B03F0A1F90B1C791C021CCFB2F1E7B4
:1031E000281C211C02F00CFA0D1C041C01F02CFB05
:1031F00001900199301C029AFFF790FF0390002F75
:1032000038D0019803F0BEFF021C0B1C201C291CA7
:1032100003F012FC2E236A4613743B1C0F2F00D9B7
:103220000F23DBB202931F1C029A0132D2B2D31BCE
:10323000013FDBB2FFB20193FF2F16D0164A174BA6
:1032400003F06AF90D1C041C01F0FEFAC0B2019AE9
:10325000031C303304A98B5403F056FF021C0B1CD3
:10326000201C291C03F0E8FBDEE73368301C5B6898
:1032700004A99847039809B0F0BDC046C046C046AF
:103280000000000000000000000000000000E03F1F
:10329000000000A09999B93F000000000000244000
:1032A00038B5049D1C1C401AEB1A5843511A01F002
:1032B000B9F9001938BD08B5FDF7B8F9FDF708FEF2
:1032C00000F02CF8FAE708B5FFF73CFE08BD08B59A
:1032D000FFF7F0FD08BD08B5FFF714FE08BD08B5FF
:1032E000FFF7B8FE08BD08B5081CFFF7A9FE08BD2A
:1032F00008B5081C111CFFF735FE08BD7047FFFF1D
:10330000044B00221A711A73FA21034A890099604A
:103310001A6070474C0100208076000010B5104CF8
:103320002378002B1BD101232370FFF70BFE00280D
:1033300001D0FFF7E3FF00F0ADF9002801D000F065
:10334000D8FF00F0EBFB002801D001F066F800F098
:1033500029FE002801D001F0F4F80023237010BDED
:103360005C010020F8B5061C0D1C171C0024301C45
:10337000391C01F04DF9092901D8303100E037310D
:10338000C9B22955301C391C01F0FEF8061E01D0C7
:103390000134ECE72B1958702B1C5A1BA24206DA99
:1033A0001A78295D19702A550133013CF5E7281C6C
:1033B000F8BDFFFF164B80221968D2000A431A603D
:1033C000144A00231370144A14491370144A1370DA
:1033D000144A1370144A1370144A1160144AD1210C
:1033E00089001160134AC104C90EC0B21170507037
:1033F00093702C23D370104BFF22196891430A1C41
:1034000040210A431A600D4B802252011A60704716
:1034100034800440E801002065010020130300000F
:10342000F0010020E90100206401002040A00440D8
:1034300044A0044000A006400CE400E000E100E0ED
:1034400010B5124B132299789143032202400A438C
:10345000410701D510210A439A700F220B490240FF
:10346000042A03D18A79402422438A715A7910218F
:103470008A43084200D00A435A719A7910218A433C
:10348000840600D50A439A7110BDC04600A00640CC
:1034900008B5124B1B685A051ED5114B1B78DBB2C1
:1034A000002B02D0FFF73AFFF7E70E4A80214901CF
:1034B00011600D4A0D49D3700422FF320A600C4995
:1034C0000A600C4A13700C4A13700C4B1B68002BDB
:1034D00002D00B4A12781A7108BDC04634800440ED
:1034E0006401002080E100E000A0064040A004400C
:1034F00044A00440E8010020650100206001002094
:10350000A601002038B5041C0B4B1D78EDB2002D30
:10351000FAD1201C0121FEF709FF291C201CFEF70F
:10352000D3FE0C225443054B054AE1581C19116087
:10353000044B227A1A7038BD6401002030750000F7
:10354000EC010020E701002038B50E4B1A6800237B
:10355000510514D50C4C1A2810D80C2343430B4AA0
:103560000B4D9958D3181B7A216001212B70FEF75F
:10357000DDFE23682A781A72012300E02360181CFC
:1035800038BDC04634800440600100203075000022
:10359000A601002000207047F8B5214B071C1B68CE
:1035A0005A053BD51F4B1B68002B02D01E4A1278D0
:1035B0001A711E4E002334783F220134A2425B412F
:1035C0005B421C401A4D2B78A3421CD1FEF7F0FC45
:1035D000402813DC174A13795BB2002BF2DA2B7800
:1035E000002101333F209842494149420B40124992
:1035F000C95CDBB2C9B2D1712B70E3E7FF28E1DD12
:10360000FFF78CFEDEE70C4BFFB21F550B4B012280
:103610001A70084BE4B2AC223470DA70F8BDC046C0
:1036200034800440EC010020E7010020F00100207C
:10363000E901002000A0064066010020640100208E
:1036400038B5041C4518AC4204D02078FFF7A4FF1D
:103650000134F8E738BDFFFF08B5044B1B78002B99
:1036600002D0FFF75BFEF8E708BDC046640100200A
:10367000064B074A1B781078DBB2C0B2834201D3F5
:103680003F3000E00138C01A7047C046F00100200A
:10369000E9010020054B1878054BC0B21B78DBB25E
:1036A000984200D24030C01A7047C046E80100205E
:1036B0006501002010B5124B12491A780B78D2B26E
:1036C000DBB29A4219D001333F2400209C42404192
:1036D000404203400C48DCB2C05C0C700B49C0B2E5
:1036E000096800290BD09A4200D24032D31A1A2B13
:1036F00005DC074B1B780B7201E00120404210BD36
:10370000E801002065010020A701002060010020E1
:10371000A60100200A4B1A780A4B1B78DBB29A42AA
:103720000AD0013300223F219942524152421340B4
:10373000054AD05CC0B201E0012040427047C0465B
:10374000E801002065010020A7010020064B1A783F
:10375000064BD2B21A70064B1B68002B02D0054AEA
:1037600012781A727047C04665010020E8010020F7
:1037700060010020A601002030B5254A1379990682
:1037800012D52449D4790B78002001333F259D427E
:103790004041404203402048E4B20078834203D0D5
:1037A0001E48C454DBB20B70D178194CC9B24BB26D
:1037B000002B1ADA23795BB2002B16DA184B194862
:1037C0001D780378DBB29D4202D16C23E3700CE0DC
:1037D000013300243F259D42644164422340124C42
:1037E000E45CDBB2E4B2D4710370402319420ED022
:1037F000117919420BD00D4B002119700C4B1B682D
:103800008B4202D00B49097819722C23D37030BD3A
:1038100000A00640E801002065010020A70100206B
:10382000F0010020E9010020660100206401002071
:10383000EC010020E7010020164B802219681201DC
:103840000A431A60144A00231370144A144913706F
:10385000144A1370144A1370144A1370144A1160F6
:10386000144AD12189001160134AC104C90EC0B2A3
:103870001170507093702C23D370104B104A19683C
:103880000A408021C9010A431A600E4B802292012E
:103890001A6070473480044064020020F90100205F
:1038A000130300006C02002065020020F8010020D4
:1038B0000CB0044010B0044000B006400CE400E03E
:1038C000FF00FFFF00E100E010B5124B13229978D2
:1038D0009143032202400A43410701D510210A43C4
:1038E0009A700F220B490240042A03D18A7940249E
:1038F00022438A715A7910218A43084200D00A4330
:103900005A719A7910218A43840600D50A439A7124
:1039100010BDC04600B0064008B5124B1B681A0522
:103920001ED5114B1B78DBB2002B02D0FFF7F6FC43
:10393000F7E70E4A8021890111600D4A0D49D370C5
:103940000422FF320A600C490A600C4A13700C4AC8
:1039500013700C4B1B68002B02D00B4A12781A71A3
:1039600008BDC04634800440F801002080E100E03A
:1039700000B006400CB0044010B0044064020020C7
:10398000F9010020F40100202202002038B5041CB7
:103990000B4B1D78EDB2002DFAD1201C0121FEF752
:1039A000C5FC291C201CFEF78FFC0C225443054B40
:1039B000054AE1581C191160044B227A1A7038BD6F
:1039C000F80100203075000068020020630200202A
:1039D00038B50E4B1A680023110514D50C4C1A2863
:1039E00010D80C2343430B4A0B4D9958D3181B7A1C
:1039F000216001212B70FEF799FC23682A781A7246
:103A0000012300E02360181C38BDC0463480044008
:103A1000F4010020307500002202002000207047D1
:103A2000F8B5214B071C1B681A053BD51F4B1B68BB
:103A3000002B02D01E4A12781A711E4E00233478D1
:103A400027220134A2425B415B421C401A4D2B7875
:103A5000A3421CD1FEF7ACFA402813DC174A1379B5
:103A60005BB2002BF2DA2B78002101332720984239
:103A7000494149420B401249C95CDBB2C9B2D1711C
:103A80002B70E3E7FF28E1DDFFF748FCDEE70C4B96
:103A9000FFB21F550B4B01221A70084BE4B2AC2247
:103AA0003470DA70F8BDC0463480044068020020EB
:103AB000630200206C0200206502002000B0064076
:103AC000FA010020F801002038B5041C4518AC426A
:103AD00004D02078FFF7A4FF0134F8E738BDFFFFDA
:103AE00008B5044B1B78002B02D0FFF717FCF8E752
:103AF00008BDC046F8010020064B074A1B78107825
:103B0000DBB2C0B2834201D3273000E00138C01AD3
:103B10007047C0466C02002065020020054B1878F3
:103B2000054BC0B21B78DBB2984200D24030C01ABD
:103B30007047C04664020020F901002010B5124B06
:103B400012491A780B78D2B2DBB29A4219D00133FB
:103B50003F2400209C424041404203400C48DCB2DC
:103B6000C05C0C700B49C0B2096800290BD09A42A6
:103B700000D24032D31A1A2B05DC074B1B780B728C
:103B800001E00120404210BD64020020F901002044
:103B900023020020F4010020220200200A4B1A78A0
:103BA0000A4B1B78DBB29A420AD0013300223F2134
:103BB0009942524152421340054AD05CC0B201E0E2
:103BC000012040427047C04664020020F9010020F5
:103BD00023020020064B1A78064BD2B21A70064B0D
:103BE0001B68002B02D0054A12781A727047C04633
:103BF000F901002064020020F401002022020020CC
:103C000030B5254A1379990612D52449D4790B7811
:103C1000002001333F259D4240414042034020485F
:103C2000E4B20078834203D01E48C454DBB20B7068
:103C3000D178194CC9B24BB2002B1ADA23795BB296
:103C4000002B16DA184B19481D780378DBB29D4219
:103C500002D16C23E3700CE00133002427259D4240
:103C6000644164422340124CE45CDBB2E4B2D471A0
:103C70000370402319420ED0117919420BD00D4B1D
:103C8000002119700C4B1B688B4202D00B4909783C
:103C900019722C23D37030BD00B00640640200209E
:103CA000F9010020230200206C02002065020020A0
:103CB000FA010020F80100206802002063020020C1
:103CC000164B8022196852010A431A60144A0023D5
:103CD0001370144A14491370144A1370144A137061
:103CE000144A1370144A1160144AD12189001160DA
:103CF000134AC104C90EC0B21170507093702C23C6
:103D0000D370104B104A19680A408021C9030A4336
:103D10001A600E4B8022D2011A6070473480044032
:103D2000E00200207502002013030000E8020020DA
:103D3000E10200207402002008C004400CC00440CE
:103D400000C006400CE400E0FFFF00FF00E100E0DF
:103D500010B5124B132299789143032202400A4373
:103D6000410701D510210A439A700F220B490240E6
:103D7000042A03D18A79402422438A715A79102176
:103D80008A43084200D00A435A719A7910218A4323
:103D9000840600D50A439A7110BDC04600C0064093
:103DA00008B5124B1B68DA041ED5114B1B78DBB229
:103DB000002B02D0FFF7B2FAF7E70E4A8021C901C3
:103DC00011600D4A0D49D3700422FF320A600C497C
:103DD0000A600C4A13700C4A13700C4B1B68002BC2
:103DE00002D00B4A12781A7108BDC04634800440D4
:103DF0007402002080E100E000C0064008C00440DA
:103E00000CC00440E0020020750200207002002077
:103E10009E02002038B5041C0B4B1D78EDB2002D1E
:103E2000FAD1201C0121FEF781FA291C201CFEF783
:103E30004BFA0C225443054B054AE1581C191160FA
:103E4000044B227A1A7038BD7402002030750000CD
:103E5000E4020020DF02002038B50E4B1A68002370
:103E6000D10414D50C4C1A2810D80C2343430B4A08
:103E70000B4D9958D3181B7A216001212B70FEF746
:103E800055FA23682A781A72012300E02360181C6F
:103E900038BDC046348004407002002030750000F8
:103EA0009E02002000207047F8B5214B071C1B68BC
:103EB000DA043BD51F4B1B68002B02D01E4A127838
:103EC0001A711E4E0023347827220134A2425B412E
:103ED0005B421C401A4D2B78A3421CD1FEF768F8B8
:103EE000402813DC174A13795BB2002BF2DA2B78E7
:103EF0000021013327209842494149420B40124991
:103F0000C95CDBB2C9B2D1712B70E3E7FF28E1DDF8
:103F1000FFF704FADEE70C4BFFB21F550B4B0122F3
:103F20001A70084BE4B2AC223470DA70F8BDC046A7
:103F300034800440E4020020DF020020E802002078
:103F4000E102002000C0064076020020740200203A
:103F500038B5041C4518AC4204D02078FFF7A4FF04
:103F60000134F8E738BDFFFF08B5044B1B78002B80
:103F700002D0FFF7D3F9F8E708BDC046740200206D
:103F8000064B074A1B781078DBB2C0B2834201D3DC
:103F9000273000E00138C01A7047C046E802002010
:103FA000E1020020054B1878054BC0B21B78DBB24C
:103FB000984200D24030C01A7047C046E00200204C
:103FC0007502002010B5124B12491A780B78D2B244
:103FD000DBB29A4219D001333F2400209C42404179
:103FE000404203400C48DCB2C05C0C700B49C0B2CC
:103FF000096800290BD09A4200D24032D31A1A2BFA
:1040000005DC074B1B780B7201E00120404210BD1C
:10401000E0020020750200209F02002070020020B4
:104020009E0200200A4B1A780A4B1B78DBB29A4298
:104030000AD0013300223F2199425241524213409B
:10404000054AD05CC0B201E0012040427047C04642
:10405000E0020020750200209F020020064B1A7823
:10406000064BD2B21A70064B1B68002B02D0054AD1
:1040700012781A727047C04675020020E0020020D4
:10408000700200209E02002030B52E4A1379990656
:1040900024D52D49D4790B78002001333F259D424A
:1040A0004041404203402948E4B20078834203D0B3
:1040B0002748C454D8B208702649086800280DD093
:1040C00025490978C9B28B4201D35B1A01E05B1A1A
:1040D0004033272B02DD214B1B780371D178194C1B
:1040E000C9B24BB2002B1ADA23795BB2002B16DA75
:1040F0001B4B19481D780378DBB29D4202D16C231B
:10410000E3700CE00133002427259D4264416442A2
:104110002340144CE45CDBB2E4B2D471037040235E
:1041200019420ED0117919420BD00F4B0021197092
:104130000E4B1B688B4202D00D49097819722C2353
:10414000D37030BD00C00640E002002075020020A0
:104150009F02002070020020E10200209E02002049
:10416000E80200207602002074020020E402002011
:10417000DF0200201FB572B6154B70221A70154A67
:1041800041211170144A0F21117080221A701A787F
:1041900052B2002AFBDA114B186862B6104B9842F3
:1041A00001D80A23584301AC211C0A22FFF7DAF890
:1041B0000023E15C0B4A002905D058001018013398
:1041C00041800A2BF5D101335B0013701FBDC0463F
:1041D00000000240070002400600024008000240C2
:1041E0007F96980010FEFF1F08B50368C9B21B68D0
:1041F000984708BD08B50368C9B21B68984708BD51
:1042000008B50368C9B21B68984708BD08B50368BC
:10421000C9B21B68984708BD08B5044B4808C018C8
:1042200000F0B2F9FFF7C6F808BDC046C0C62D00C1
:1042300010B5064B4808C018141C00F0A5F9FFF78C
:10424000B9F8201CFFF7FCF810BDC046C0C62D0011
:1042500008B5FFF71DF908BD08B5081CFFF752F9AE
:1042600008BD08B5081CFFF76FF9431E9841C0B29E
:1042700008BD08B5081CFFF78DF9431E9841C0B270
:1042800008BD08B5FFF706FA08BD08B5FFF742FA02
:1042900008BD08B5FFF70EFA08BD08B5FFF7DCF951
:1042A00008BD08B5FFF752FA08BD08B5FFF7E0F9F9
:1042B00008BD08B5081CFFF76FF9012008BD08B557
:1042C000081CFFF769F9012008BD10B5081C141C73
:1042D000111CFFF7B5F9201C10BD38B5081C0D1CCA
:1042E00003F0E0F8041C211C281CFFF7A9F9201C8E
:1042F00038BD7047044B00221A711A73FA21034A21
:10430000890099601A607047EC020020F87600007E
:1043100008B50368C9B21B68984708BD08B50368AB
:10432000C9B21B68984708BD08B50368C9B21B68C5
:10433000984708BD08B50368C9B21B68984708BD0F
:1043400008B5044B4808C01800F01EF9FFF774FACE
:1043500008BDC04660E3160010B5064B4808C018FB
:10436000141C00F011F9FFF767FA201CFFF7ACFAF4
:1043700010BDC046C0C62D0008B5FFF7CDFA08BD78
:1043800008B5081CFFF702FB08BD08B5081CFFF7BD
:104390001FFB431E9841C0B208BD08B5081CFFF7BB
:1043A0003DFB431E9841C0B208BD08B5FFF7B6FB00
:1043B00008BD08B5FFF7F2FB08BD08B5FFF7BEFB67
:1043C00008BD08B5FFF78CFB08BD08B5FFF702FC78
:1043D00008BD08B5FFF790FB08BD08B5081CFFF73E
:1043E0001FFB012008BD08B5081CFFF719FB0120C1
:1043F00008BD10B5081C141C111CFFF765FB201C20
:1044000010BD38B5081C0D1C03F04CF8041C211C11
:10441000281CFFF759FB201C38BD7047044B0022B5
:104420001A711A73FA21034A890099601A60704759
:10443000FC0200205077000008B50368C9B21B6871
:10444000984708BD08B50368C9B21B68984708BDFE
:1044500008B50368C9B21B68984708BD08B503686A
:10446000C9B21B68984708BD08B5044B4808C01876
:1044700000F08AF8FFF724FC08BDC04660E3160090
:1044800010B5064B4808C018141C00F07DF8FFF763
:1044900017FC201CFFF75CFC10BDC04660E3160053
:1044A00008B5FFF77DFC08BD08B5081CFFF7B2FC96
:1044B00008BD08B5081CFFF7CFFC431E9841C0B2E9
:1044C00008BD08B5081CFFF7EDFC431E9841C0B2BB
:1044D00008BD08B5FFF766FD08BD08B5FFF7A2FDEA
:1044E00008BD08B5FFF76EFD08BD08B5FFF73CFD38
:1044F00008BD08B5FFF7B2FD08BD08B5FFF740FDE0
:1045000008BD08B5081CFFF7CFFC012008BD08B5A1
:10451000081CFFF7C9FC012008BD10B5081C141CBD
:10452000111CFFF715FD201C10BD38B5081C0D1C13
:1045300002F0B8FF041C211C281CFFF709FD201CF9
:1045400038BD7047044B00221A711A73FA21034ACE
:10455000890099601A6070470C030020A87700005A
:1045600002B4714649084900095C49008E4402BC06
:104570007047C04603B47146490840004900095AD3
:1045800049008E4403BC7047002934D00123002227
:1045900010B488422CD301242407A14204D28142C2
:1045A00002D209011B01F8E7E400A14204D28142D2
:1045B00002D249005B00F8E7884201D3401A1A434F
:1045C0004C08A04202D3001B5C0822438C08A04286
:1045D00002D3001B9C082243CC08A04202D3001B3C
:1045E000DC082243002803D01B0901D00909E3E7B6
:1045F000101C10BC7047002801D00020C04307B435
:10460000024802A14018029003BDC046D900000034
:104610000029F0D003B5FFF7B9FF0EBC4243891A59
:104620001847C046002941D010B4041C4C40A44691
:1046300001230022002900D54942002800D540422C
:1046400088422CD301242407A14204D2814202D201
:1046500009011B01F8E7E400A14204D2814202D221
:1046600049005B00F8E7884201D3401A1A434C081E
:10467000A04202D3001B5C0822438C08A04202D354
:10468000001B9C082243CC08A04202D3001BDC087C
:104690002243002803D01B0901D00909E3E7101CBD
:1046A0006446002C00D5404210BC7047002806D05C
:1046B00003DB0020C043400801E08020000607B46F
:1046C000024802A14018029003BDC0461900000034
:1046D0000029EBD003B5FFF7A7FF0EBC4243891AB0
:1046E0001847C0467047C0468446101C62468C4638
:1046F000191C634600E0C0461FB501F08FFE00287C
:1047000001D40021C8421FBD10B501F0BFFD4042D9
:10471000013010BD10B501F081FE002801DB002042
:1047200010BD012010BDC04610B501F077FE002875
:1047300001DD002010BD012010BDC04610B501F004
:10474000EFFD002801DC002010BD012010BDC04697
:1047500010B501F0E5FD002801DA002010BD0120B0
:1047600010BDC0468446081C6146FFE71FB500F037
:104770008FFB002801D40021C8421FBD10B500F0F6
:1047800015FB4042013010BD10B500F081FB002840
:1047900001DB002010BD012010BDC04610B500F0A7
:1047A00077FB002801DD002010BD012010BDC046B0
:1047B00010B500F025FB002801DC002010BD012011
:1047C00010BDC04610B500F01BFB002801DA002028
:1047D00010BD012010BDC0461C2101231B049842BE
:1047E00001D3000C10391B0A984201D3000A083982
:1047F0001B09984201D30009043902A2105C401839
:104800007047C046040302020101010100000000DC
:10481000000000009E2110B5C905041CFFF7D2FF5F
:10482000002803D1201C00F01FFE10BD9E21C905E9
:10483000201C00F0A3FC00F017FE80231B06C0180C
:10484000F3E7C046FFFFFFFF38B50E4B0C4A041CD0
:104850000D1CFFF77DFF002804D1201C291C02F04D
:104860001FFC38BD074B064A201C291C02F0E4F847
:1048700002F016FC80231B06C018F2E7C046C046B3
:10488000000000000000E041F8B543024400C50FFD
:104890004E024800240E2A1C9B09000EC90FB609BF
:1048A0008D425BD0221A002A00DC89E000281DD14D
:1048B000002E00D075E0580704D00F221A40042AB9
:1048C00000D004338021C90419402A1C00293AD0A1
:1048D0000134FF2C00D17FE09B015B0A5B02E4B254
:1048E000E405580AD20720431043F8BDFF2CE2D05C
:1048F0008021C9040E431B2A00DD2DE1311C20203C
:10490000D140821A9640721E96410E439B1B58015D
:10491000D1D59B019F09381CFFF75EFF421F9740CE
:1049200094425BDC141B1F231B1B3A1C9F40611C21
:104930003B1CCA405F1EBB4113430024BBE7131E50
:10494000B9D100230022DB08FF2C04D1002B43D077
:104950008020C00303435B025B0ABFE7211A0029E2
:1049600040DD002823D0FF2CA5D08020C0040643C2
:104970001B2900DDEEE0301C2027C840791A8E404C
:10498000711E8E4106439B19590100D493E70134EF
:10499000FF2C55D0714901221A400B405B0813438C
:1049A00089E7013A002AB1D0FF2CA4D183E7002E79
:1049B00000D180E701390029E5D0FF2CD8D17AE772
:1049C000002A1BD1621CD2B2012A4BDD9F1B7A0147
:1049D00023D5F71A0D1C9EE700237FE75F4BA41A2F
:1049E0003B4068E7002946D1611CC8B2012829DD97
:1049F000FF2924D0F3185B080C1C5CE7002C13D0B3
:104A0000FF2818D08024E404524223431B2A4DDDA2
:104A10000123F31A041C0D1C79E7002F00D07AE75C
:104A20000023002200248EE7002B3BD0D243002A33
:104A3000EFD0FF28EAD1331CFF240D1C3BE7FF24F5
:104A4000002380E7002C5CD1002B00D180E0002EF9
:104A500000D130E79B19580100D42CE73F4A0124CC
:104A6000134028E7002C15D1002B40D1002E63D035
:104A7000331C0D1C1FE7002C21D1002B54D0C9433F
:104A8000002904D0FF284CD01B2958DD01239B1995
:104A9000041C79E7002B19D1002E48D0331C0D1CC3
:104AA000FF2408E7331C041C0D1C04E71C1C2025F4
:104AB000D440AA1A93405A1E93412343A9E7FF28E2
:104AC0002FD08024E40449422343DDE7FF24002E55
:104AD00000D1F0E68022DB08D203134204D0F608AE
:104AE000164201D1331C0D1CDB00FF24E3E6002E2F
:104AF00000D1E0E69A1B500100D420E7F31A0D1C08
:104B0000D9E6002B0DD0FF24002E00D1D3E6802261
:104B1000DB08D2031342E7D0F6081642E4D1331C77
:104B2000E2E7331CFF24C6E6331C041CC3E68023E3
:104B300000229B04FF2406E7231C002203E71C1C21
:104B40002027CC40791A8B40591E8B4123439EE786
:104B5000331CB0E6012616E70126D7E6FFFFFFFB70
:104B6000F0B55F4656464D464446F0B44602450011
:104B7000C00F85B00F1C760A2D0E804641D0FF2D48
:104B800026D08024240400212643F6007F3D894658
:104B90008B46F90F7C027800640A000E00918A4669
:104BA0003CD0FF2834D080231B041C430023E400A6
:104BB0007F380193009F4346019A7B4049469C46BB
:104BC00011430F2900D971E0764F89007F58BF4605
:104BD000002E3ED10822022391469B46D9E75A4631
:104BE000341CC24601920199022937D0032900D111
:104BF000CFE0012900D0ABE053460B400022002655
:104C000032E0002E19D10421012289469346C0E7E3
:104C1000221C531E9A4102320192CBE701270197D1
:104C2000002CC7D0201CFFF7D7FD431F9C407623E4
:104C30005B420021181A0191BCE7301CFFF7CCFD44
:104C40007625431F9E406D4200232D1A99469B46B0
:104C50009FE70C23032199468B469AE7D44601230C
:104C600067463B40FF2200267602D205700ADB072A
:104C70001043184305B03CBC90469946A246AB464B
:104C8000F0BD80260023F603FF22EDE70022002678
:104C9000EAE78020C00306423BD0044239D1061C1B
:104CA00026437602760A009BFF22DDE7281A03904E
:104CB00076016401A64239D3361B1A220123012052
:104CC000311C5B007600002901DBB44201D8361BA1
:104CD0000343013A002AF3DC741EA641341C1C4332
:104CE000039A7F32002A27DD630704D00F23234075
:104CF000042B00D00434270103D52B4B039A1C400E
:104D00008032FE2A0BDD012361460B40FF22002684
:104D1000AAE706437602760A4346FF22A4E7A401E7
:104D200001236746660AD2B23B409DE7039F1B22E0
:104D3000013F03970023C2E77E23039F5B42DB1BF7
:104D40001B2B07DD012361460B40002200268BE769
:104D5000D446C5E7221CDA40039B9E339C40231CAB
:104D60005C1EA34113435A0704D00F221A40042AA1
:104D700000D004335F0105D5012361460B400122B9
:104D8000002671E79E01624601231340760A002245
:104D90006AE78026F60326437602760A5346FF2208
:104DA00062E7C046F8770000FFFFFFF74A024302C0
:104DB00070B55C0A550A43004A001B0EC60F120E5E
:104DC000C90FFF2B05D0FF2A08D0012093420BD03A
:104DD00070BD0120002CFBD1FF2AF6D10120002D4F
:104DE000F6D101209342F3D1AC42F1D18E4205D0ED
:104DF000002BEDD1201C441EA041E9E70020E7E78D
:104E00004A024302F0B55C0A550A43004A001B0EF1
:104E1000C60F120EC90FFF2B31D0FF2A34D0002B42
:104E200016D1604260418446002A14D0002820D167
:104E30008E4217D1934215DC04DBAC4212D800201D
:104E4000AC4212D2704270414042012318430CE040
:104E5000002AEDD194466F426F416046002805D18B
:104E6000002FE5D0704201231843F0BD0020002F31
:104E7000FBD148424841404201231843F5E7002C4A
:104E8000CBD002204042F0E7002DC8D0F9E7C04661
:104E90004A024302F0B55C0A550A43004A001B0E61
:104EA000C60F120EC90FFF2B27D0FF2A29D0002BC7
:104EB00010D0002A15D194466F426F4160460028F9
:104EC00015D00020002F04D1484248414042012320
:104ED0001843F0BD604260418446002AECD00028AF
:104EE000F2D18E4211D0704201231843F1E7002F16
:104EF000F7D0704201231843EBE70220002CE8D1E1
:104F0000D3E70220002DE4D1D1E79342EBDC04DBB0
:104F1000AC42E8D80020AC42DBD270427041404243
:104F200001231843D5E7C046F0B55F4656464D46C7
:104F30004446F0B44402460083B00F1C640A360EA7
:104F4000C50F002E41D0FF2E22D080231B0400204D
:104F50001C43E4007F3E82468046391C4B007F02A2
:104F6000C90F7F0A1B0E8B463BD0FF2B34D080220B
:104F700012041743FF007F3B00215A466A4001920A
:104F800052460A430F2A63D87A48920082589746BD
:104F9000002C3FD10822022392469846DDE7019576
:104FA000404602282AD1019A01251540FF230024FA
:104FB0006402DB05600AED071843284303B03CBCDC
:104FC00090469946A246AB46F0BD002C27D104205E
:104FD000012282469046C0E7391C4A1E91410231A7
:104FE000CBE70121002FC8D0381CFFF7F5FB431F8A
:104FF0009F4076235B421B1A0021BEE7032800D1A5
:10500000AEE001284FD1019842461040C5B20023BE
:105010000024CDE70C2303209A4680469DE7201C00
:10502000FFF7DAFB7626431F9C4076420023361AB0
:105030009A46984691E780240025E403FF23B7E7CA
:105040005B463C1C01938846AAE73C1C8846A7E7C0
:10505000250C24043A0C240C3F04F6183F0C211CA8
:10506000231C794353436F435543FB180A0C9B1889
:10507000B1469F4202D980225202AD1809041A0497
:10508000090C521894011B0C611E8C41920EED18F4
:105090001443AD012C43230105D5012263080120EF
:1050A000144081441C434B467F33002B2DDD6007A9
:1050B00004D00F222240042A00D00434220103D558
:1050C0002D4B1C404B468033FE2B17DD019B0125E9
:1050D0001D400024FF236BE78020C003044208D05A
:1050E000074206D1041C3C436402640A5D46FF2368
:1050F0005EE704436402640AFF2359E70198A401B0
:105100000125640ADBB2054052E77E235B424A4632
:105110009B1A1B2B05DD019B01251D40002400234C
:1051200046E7221CDA404B469E339C40231C5C1E03
:10513000A3411343580704D00F221A40042A00D079
:1051400004335A0105D5019B01251D40002401238C
:105150002EE701989C010125640A0540002327E7FA
:105160008027FF03019B3C43640201251D40640A24
:10517000FF231DE738780000FFFFFFF7F8B5C20FE7
:10518000430244004D024800240E161C9B09000EE9
:10519000C90FAD09FF2800D183E0012779408A4279
:1051A0005CD0221A002A00DC8EE000281ED1002DDF
:1051B00000D07AE0580704D00F221A40042A00D009
:1051C00004338021C90401221940324000293AD019
:1051D0000134FF2C00D183E09B015B0A5B02E4B247
:1051E000E405580AD20720431043F8BDFF2CE1D054
:1051F0008021C9040D431B2A00DD31E1291C202038
:10520000D140821A95406A1E95410D435B1B58019F
:10521000D0D59B019F09381CFFF7DEFA421F97404B
:1052200094425FDC141B1F231B1B3A1C9F40611C14
:105230003B1CCA405F1EBB4113430024BAE7131E48
:10524000B8D100230022DB08FF2C04D1002B47D06B
:105250008020C00303435B025B0ABFE7211A0029D9
:1052600044DD002827D0FF2CA4D08020C0040543B3
:105270001B2900DDF2E0281C2027C840791A8D4048
:10528000691E8D4105435B19590100D492E7013431
:10529000FF2C59D0734901221A400B405B0813437D
:1052A00088E7002D00D07AE777E7013A002AADD0F1
:1052B000FF2CA0D17EE7002D00D17BE7013900292A
:1052C000E1D0FF2CD4D175E7002A1BD1621CD2B2E9
:1052D000012A4BDD5F1B7A0123D5EF1A0E1C9AE7DA
:1052E00000237BE75F4BA41A3B4063E7002946D1CC
:1052F000611CC8B2012829DDFF2924D0EB185B0806
:105300000C1C57E7002C13D0FF2818D08024E4048D
:10531000524223431B2A4DDD0123EB1A041C0E1CB1
:1053200075E7002F00D076E70023002200248AE7EB
:10533000002B3BD0D243002AEFD0FF28EAD12B1C10
:10534000FF240E1C36E7FF2400237CE7002C5CD1F1
:10535000002B00D180E0002D00D12BE75B19580114
:1053600000D427E73F4A0124134023E7002C15D13E
:10537000002B40D1002D63D02B1C0E1C1AE7002CF3
:1053800021D1002B54D0C943002904D0FF284CD090
:105390001B2958DD01235B19041C75E7002B19D16B
:1053A000002D48D02B1C0E1CFF2403E72B1C041CD3
:1053B0000E1CFFE61C1C2026D440B21A93405A1E35
:1053C00093412343A9E7FF282FD08024E4044942D6
:1053D0002343DDE7FF24002D00D1EBE68022DB082C
:1053E000D203134204D0ED08154201D12B1C0E1C30
:1053F000DB00FF24DEE6002D00D1DBE65A1B500166
:1054000000D41CE7EB1A0E1CD4E6002B0DD0FF24B1
:10541000002D00D1CEE68022DB08D2031342E7D074
:10542000ED081542E4D12B1CE2E72B1CFF24C1E65A
:105430002B1C041CBEE6802300229B04FF2402E7F1
:10544000231C0022FFE61C1C2027CC40791A8B402D
:10545000591E8B4123439EE72B1CABE6012512E727
:105460000125D3E6FFFFFFFB4302590A4300C20FA9
:105470001B0E00207E2B0DDD9D2B0CDC80200004FC
:105480000143952B0ADC9620C31AD9404842002AD2
:1054900000D1081C7047034BD018FBE7963B99409E
:1054A000F4E7C046FFFFFF7F70B5041E3CD0C60F77
:1054B00000D04442201CFFF78FF99E23251C1B1AA5
:1054C000962B0CDC083884406402640ADBB2321C80
:1054D0006402DB05600AD2071843104370BD992BA4
:1054E0000ADD0522121A211CD1400A1C011C1B31A5
:1054F0008D40691E8D411543052801DD421F9540F1
:10550000164C2C406A0704D00F221540042D00D001
:10551000043461010CD59F23181AFF281AD0A40166
:10552000640AC3B2321CD3E7002200230024CFE771
:10553000E408FF2B04D06402640ADBB2321CC7E724
:10554000002C04D08020C00304436402640A321C8F
:10555000FF23BDE7321CFF230024B9E7FFFFFFFB59
:1055600010B5041E33D0FFF737F99E231B1A962B74
:1055700009DC083884406402640ADBB26402DB059B
:10558000600A184310BD992B0ADD0522121A211C4E
:10559000D1400A1C011C1B318C40611E8C411443FC
:1055A000052801DD421F9440144A2240610704D0BF
:1055B0000F210C40042C00D0043251010AD59F2346
:1055C000181AFF2816D09401640AC3B2D6E7002344
:1055D0000024D3E7D208FF2B03D05402640ADBB2C5
:1055E000CCE7002A06D08024E40314436402640A52
:1055F000FF23C3E7FF230024C0E7C046FFFFFFFBF4
:10560000F8B55F46564644464D46F0B40C034D008F
:10561000CE0F610A440F2143C4001803804658008E
:10562000400D8246D80F84464046400A530F03433C
:10563000D0006D0D371C83465246664500D1A4E06C
:10564000AF1A002F00DC09E1002A3BD1184300D03B
:10565000EAE0630700D187E00F232340042B00D149
:1056600082E0221DA242A4416442802309191B0446
:105670000B40371C141C002B00D17CE0CE4B0135B5
:105680009D4200D105E1CD4BE4081940480749028D
:1056900004430B0B002000211B031A0B0B0D6D059F
:1056A0001B0513436A08C64DFF071D4015436D00D7
:1056B0006D08291C3943201C3CBC90469946A246E3
:1056C000AB46F8BDBC488542C3D0802000040343EC
:1056D000382F00DDF0E01F2F00DD24E12020C01B6B
:1056E0001A1C814682405846F84002439446584668
:1056F0004A469040421E9041FB40624602431F1CB6
:10570000A21A9442A4416442C91B091B141C0B0237
:105710009FD549024F0A002F00D1C8E0381CFFF77F
:105720005BF8021C083A1F2A00DDB5E02821091A9F
:10573000201C9740C84007439440954200DDB2E0EA
:10574000551B691C1F2900DDDCE01F22551B3B1C7B
:10575000221CAB40CA40AC40651EAC411343CF4055
:105760001C43391C002574E780231B040B40371CA5
:10577000002B00D082E7904B4807E4080443C90897
:105780009D4248D009030B0B84E7AA1A9446002ACD
:1057900000DC98E05046002852D08748854200D16E
:1057A00057E78020000403436246382A00DDFCE00E
:1057B0001F2A00DD4AE120226046101A1A1C82408E
:1057C0008246914658466246D0404A460243904639
:1057D000584652469040421E90414246024360461F
:1057E000C3401219A242A441644259180919141C59
:1057F000080200D42DE7704B01359D4200D122E113
:105800006E4B60081940012323401C1C0443CB0746
:105810001C4349081DE7231C0B433AD080231B037C
:105820000B431B031B0B35E7013F002F65D1584687
:10583000221A9442A4416442C91A091B141C66E747
:105840005846184300D104E701225242944460466E
:10585000002800D0C5E058460219C3E7002F73D1D5
:10586000681C4005400D012800DCDEE05A46A21A03
:105870009442BF41C81A7F42C71B380200D489E056
:105880005A46141BA3459241591A52428F1A664632
:1058900041E700230024FDE6271C28388740002428
:1058A000954200DC4CE74549AD1A3940D1E6201C51
:1058B000FEF792FF203034E75A461A43531E9A41AE
:1058C000D2B200271CE7002A00D0DCE0681C4205A9
:1058D000520D012A00DC8DE0374DA84200D1F3E0E3
:1058E0005D462A19A242A441644259180919CC07FD
:1058F000520814434908051CABE62F48854200D0E6
:10590000E6E6A6E62B1C1F3B3A1CDA40131C2029B6
:105910006CD03F22551BAF403C43601E84411C436A
:105920000021002595E6381C20381A1CC240101CA6
:10593000202F5DD04022D71BBB405A461A43531E2E
:105940009A4102430027DBE6002D3BD01A4DAA45C1
:1059500000D193E080252D047F422943382F00DDBC
:10596000ACE01F2F00DD29E12025ED1B081C261CC3
:10597000A840FE40AC400643651EAC413443F940AC
:105980005D462C1BA34592415B1A5242991A55461B
:105990006646BCE6131C3B43141C002B00D0BAE641
:1059A0000027002100250024E5E65A461A43531E2D
:1059B0009A41D2B2002314E7FF070000FFFF7FFFE8
:1059C000FFFF0F800D1C254358D0FF43002F51D1FE
:1059D000041BA3459241591A5242891A55466646FC
:1059E00095E69648854200D0DEE632E6002793E74A
:1059F0000023A2E7081C2043002D00D0C4E00028AB
:105A000000D1F7E05846184300D122E65846021963
:105A1000A242A441644259180919141C0A0200D474
:105A200017E6874B0125194013E6081C2043002D7B
:105A300039D1002871D15946194303D0191C5C464D
:105A4000664606E600270021002494E660462038DA
:105A50001A1CC24060469146202800D1ACE040228A
:105A6000121A93405A461A43531E9A414B461A4300
:105A70000023B6E6714DAA4500D06FE7191C5C46BD
:105A800055466646E5E5002D22D10D1C254377D00D
:105A9000D543002D71D15C445C4592415918524266
:105AA00089185546A4E600284DD15946194300D11E
:105AB00094E0191C5C466646604DCAE50C43611EC5
:105AC0008C41E4B200215BE7051C0021002452E672
:105AD0005A4DAA4554D05542802210040143382D16
